:1040000000000320819A00006D9A00006D9A000064
:104010006D9A00006D9A00006D9A0000000000008B
:104020000000000000000000000000006D9A000089
:104030006D9A0000000000006D9A0000019B0000D6
:104040006D9A00006D9A00006D9A00006D9A000054
:104050006D9A00006D9A00006D9A00006D9A000044
:104060006D9A00006D9A00006D9A00006D9A000034
:104070006D9A00006D9A00006D9A00006D9A000024
:104080006D9A00006D9A00006D9A00006D9A000014
:104090006D9A00006D9A00006D9A00006D9A000004
:1040A0006D9A00006D9A00006D9A00006D9A0000F4
:1040B0006D9A00006D9A00006D9A00006163000027
:1040C00061630000616300006163000061630000E0
:1040D0006D9A00006D9A00006D9A00006D9A0000C4
:1040E0006D9A00006D9A00006D9A00006D9A0000B4
:1040F000000000006D9A00006D9A00006D9A0000AB
:104100006D9A00006D9A0000A9990000B599000011
:10411000B9990000BD9900006D9A00006D9A0000E9
:104120006D9A00006D9A00006D9A00006D9A000073
:104130006D9A00006D9A0000C1990000CD990000B1
:10414000D1990000D59900007D990000899900005F
:104150008D990000919900006D9A00006D9A000001
:104160006D9A00006D9A00006D9A00006D9A000033
:104170006D9A00006D9A00006D9A00006D9A000023
:10418000719A0000139B0000179B00001B9B00000E
:10419000000000006D9A00006D9A00006D9A00000A
:1041A0006D9A00006D9A00006D9A00006D9A0000F3
:1041B0006D9A00006D9A00006D9A00006D9A0000E3
:1041C0006D9A00006D9A00006D9A00006D9A0000D3
:1041D0006D9A00006D9A00006D9A00006D9A0000C3
:1041E0006D9A00006D9A00006D9A00006D9A0000B3
:1041F0006D9A0000000000006D9A00000D84000020
:104200006D9A00006D9A00006D9A00006D9A000092
:104210006D9A00006D9A00006D9A00006D9A000082
:104220006D9A00006D9A00006D9A00006D9A000072
:104230006D9A00006D9A00006D9A00006D9A000062
:104240006D9A00006D9A00006D9A00006D9A000052
:104250006D9A00006D9A00006D9A00006D9A000042
:104260006D9A000010B5054C237833B9044B13B197
:104270000448AFF300800123237010BD0007002025
:10428000000000003C0C010008B5034B1BB10349C2
:104290000348AFF3008008BD0000000004070020C1
:1042A0003C0C010010B5044B044640F8483B07F0B5
:1042B000D6FB204610BD00BF28FB000038B50D46D8
:1042C00061B1046854B1E168284609F0F9FB30B1E6
:1042D000B4F90A3013B104EB0314F3E700242046C9
:1042E00038BD70B50446D0E9000243189A420FD990
:1042F000435C3BB999420AD0D65CC55CAE4201D161
:104300000133F7E710F8013B002BFBD1EDE728B9AB
:1043100053180133636000235354104670BD0346A5
:10432000D1E901021030824210B503D201230B748F
:10433000002010BDA2F110008860596859B1441ADC
:1043400024114C815860002322F8063C02F8083CF6
:1043500042F8043CEDE71860F4E738B5436A0344DB
:1043600000251D710446011D006807F03AFC00B1EC
:104370006562606A38BD38B5436A01331F2B044655
:104380000D4606D8606A431C63620444012025710F
:1043900038BDFFF7E2FF0028F4D00020F8E70268FC
:1043A0005168416093685B1A0021C36081600BB95A
:1043B000012313747047836810B5C4685A1CA24265
:1043C00037BF446803688260E15424BF01221A7435
:1043D00010BD0000F0B5DDB06C46624D6249074685
:1043E000204607F081FB2B886049A38104A807F0D1
:1043F0007BFB2B885E49A38308A807F075FB2B88FD
:104400005C4D5D49A3850CA807F06EFB2B885B49CA
:10441000A38710A807F068FB2B885949A4F84C30F3
:1044200014A807F061FB2B885649A4F85C3018A843
:1044300007F05AFB544B554D1B885549A4F86C3076
:104440001CA807F051FB2B885249A4F87C3020A807
:1044500007F04AFB2B885049A4F88C3024A807F0B9
:1044600043FB2B884D4D4E49A4F89C3028A807F0FB
:104470003BFB2B884B49A4F8AC302CA807F034FB4D
:104480002B884949A4F8BC3030A807F02DFB2B88B5
:104490004649A4F8CC3034A807F026FB2B884449C1
:1044A000A4F8DC3038A807F01FFB424B424D1B88B4
:1044B0004249A4F8EC303CA807F016FB2B88404991
:1044C000A4F8FC3040A807F00FFB2B883D49A4F866
:1044D0000C3144A807F008FB3B4B3C4D1B883C4982
:1044E000A4F81C3148A807F0FFFA2B883949A4F832
:1044F0002C314CA807F0F8FA2B883749A4F83C3146
:1045000050A807F0F1FA2B883449A4F84C3154A88C
:1045100007F0EAFA2B883249A4F85C3158A807F072
:10452000E3FA304B1B88A4F86C3126460025394647
:10453000304607F089FB60B104EB0515AE895CAD30
:10454000103D284607F08BFAA542F9D130465DB000
:10455000F0BD0135172D06F11006E8D14FF6FF76B4
:10456000EDE700BF2608002094FA0000CCF8000018
:10457000CEF8000084070020D0F80000D2F8000038
:10458000D4F80000D6F80000880700202607002095
:10459000D8F80000DAF80000DCF800002408002059
:1045A000DEF80000E0F80000B0090100E2F80000C9
:1045B0008F0901008607002028070020E4F800008A
:1045C000E6F800008BFB0000800700204808002070
:1045D0009B090100E8F80000EAF80000ECF8000090
:1045E000EEF800008207002070B54FF41651154810
:1045F00006F0DAF8144804F00BFB1449044611489D
:1046000005F02FFD0F480A22214605F08EFD04B16A
:10461000FEE70F4802F06EF8FF2810D00D4C0E4E4A
:104620000E4D2368032B0BD032462946084802F072
:104630006BF820604FF47A7005F0B8FAF1E7FEE706
:1046400070BD00BF501300208C070020F0F8000060
:104650000C0A002044080020420000203B000020FB
:10466000044910B50C1F51F8302054F8303043EC99
:10467000102B10BD0CFA00002DE9F74F03782B2BFF
:104680000F4635D02D2B34D101304FF0010A03787D
:10469000A3F13002092A02D92E2B40F024810646CC
:1046A000002400254FF00A0C304610F8013BA3F11E
:1046B0003001C9B209291FD88C4B4FF09932AB4257
:1046C00008BFA24221D30CFB05F3A4FB0C451D44FB
:1046D0004FF0FF396FEA0108A94508BFA045CAB2EB
:1046E0004FF0000311D3A41843EB05050646DBE7A2
:1046F00001304FF0000ACAE73BB9BAF1000F28D0E9
:10470000B5F1004F08BF012C14D300234FF000086F
:104710004FF480194D4508BF444503F1010B22D3E6
:104720000023204629460A2208F0EAF85B460446A0
:104730000D46EFE73B7A644265EB450523F07F03C6
:10474000C7E9004543F00A033B72504603B0BDE899
:10475000F08F3B7AC7E9004523F07F0343F008035D
:104760003B720120F2E79A1B02EB060C334616F867
:10477000011BA1F1300009280FFA8CFCF4D92E2975
:104780001DD15B49B6464FF099304FF00A08734689
:104790000EF1010E1E78303EF6B2092E0FD88D4272
:1047A00008BF8442F3D2A4FB0823941908FB053305
:1047B0000CF1FF3643F100050FFA86FCE7E71A78A3
:1047C00002F0DF02452A6FD15A782D2A23D19A1C94
:1047D000012000264FF00A0E134612F8011B303953
:1047E0005FFA81F8B8F1090F2DD80EFB06160CEB15
:1047F0000603B3F59A7FEFDD3B7AA8B10024BAF146
:10480000000F0ED1002523F07F0343F00C03C7E90E
:1048100000453B729AE72B2A14BF5A1C9A1C0020B1
:10482000D7E74FF00045EEE70020BAF1000F08D1BE
:10483000304923F07F0343F00C03C7E900013B72CA
:104840008FE72D49F5E700B1764293F80080B8F183
:10485000000F48D120462946664407F023FD002E6C
:1048600004460D4622DDF2070BD55FFA88F0FFF70C
:10487000F7FE2046294653EC102B07F049FD04466D
:104880000D46761008F10108EDD1BAF1000F02D003
:1048900005F100431D463B7A23F07F0343F00C03F0
:1048A000C7E900453B725CE70026CEE7DFF84C9095
:1048B000764209F1040B002EE7D0F3070FD55FFA1B
:1048C00088F320465BF8332059F833300092019387
:1048D0002946DDE9002307F01BFD04460D4676104E
:1048E00008F10108E7E7002030E700BF999999191E
:1048F000999901000000F07F0000F0FFC0F900006E
:1049000008B1FFF7DBBC7047437F6BB9D0E90532D4
:1049100093423DBF5A1C42611B784FF0FF3323EA9C
:10492000E373037701234377007F7047F8B50F4F98
:104930000446012600252046FFF7E6FF50B1A0F10E
:104940000903DBB2172B0DD806FA03F33B4209D05B
:104950006577F0E7237C002B14BF0223012384F842
:104960006430F8BD01202074FBE700BF1300800015
:1049700030B5037A03F07F03043B85B0082B42D89F
:10498000DFE803F01E1E05410841114129000078AF
:1049900005B030BDD0E90001002908BFB0F1004FDB
:1049A000F6D30020F4E7D0E9003213F1004442F1DD
:1049B0000005012D08BF002C34BF18460020E7E792
:1049C0000023694600688DF80830FFF755FE6846F9
:1049D000FFF7CEFFDCE7D0E900450F4B0022204671
:1049E000294607F01BFF0028D2D009A3D3E90023F2
:1049F0002046294607F008FF0028C9D0204629464E
:104A000007F036FFC4E70020C2E700BFAFF3008025
:104A10000000C0FFFFFFDF410000E0C138B50446E1
:104A20000D46FFF771FFA8424FF0000004BF60770A
:104A3000012038BD2F2807D9392803D95E280CD981
:104A40007A2805D8012070472B28FBD02D28F9D0D3
:104A5000A0F12E035842584170474028F8D95A28EF
:104A6000EFE71FB502467F2A0846D1B203D8FFF709
:104A7000A2FC04B010BD00238DF8083001F03F0106
:104A80009309C2F38714C2F38F1261F07F011F2ACA
:104A90008DF809100ED864F03F048DF80A400DF12E
:104AA0000B0414F8011D0029E3D00190FFF783FCEB
:104AB0000198F6E7991104F03F0464F07F0411F4C3
:104AC0007C7FC3F389128DF80A40C3F3871305D1A5
:104AD00063F01F038DF80B3003ACE2E703F03F03F4
:104AE00063F07F038DF80B30931163F00F038DF8A3
:104AF0000C300DF10D04D4E72DE9F8430746FFF71C
:104B000003FF002406467C7725463846FFF7FCFE67
:104B1000864201467D7759D028B9022387F8643050
:104B20000020BDE8F8835C284AD13846FFF7ECFE48
:104B30000028F2D0752839D17D774FF004084FF066
:104B400000093846FFF7E0FE0028E6D040288ABF7B
:104B500020F02003A0F13003373BDBB20F2B01D94B
:104B60000323DBE708F1FF3843EA091318F0FF08D5
:104B70001FFA83F97D77E4D109F520539BB2B3F591
:104B8000806F02D2C9F30904BFE709F510539BB245
:104B9000B3F5806F3DBFC9F3090949EA842909F5D6
:104BA000803048463946FFF75CFFAEE70B4B1A787A
:104BB000002AD5D0904207D159780029D0D07D77EE
:104BC0003846FFF7F8FBA0E70233F0E73B681B7CB1
:104BD0000BB10423A2E70120A3E700BF0DF90000F9
:104BE000F8B50446FFF7DBFB2046FFF78DFE2728CC
:104BF0001ED022281CD02046FFF786FE0646FFF76F
:104C000019FF0546C8B10027314620466777FFF7F0
:104C1000D2FB2046FFF778FE0646FFF70BFF002881
:104C2000F2D123681B7C5BB1042384F8643002E07A
:104C30002046FFF761FF054602E0032384F8643055
:104C40002846F8BD2DE9F84F04460E461F46FFF7EB
:104C50006DFE054608B9002556E02046FFF754FED4
:104C60005B2835D020D8222878D0272876D0204637
:104C7000FFF74AFE04F1240B804604F1630AD9468B
:104C8000A9EB0B074046FFB2FFF7D4FE00287ED009
:104C9000D1457BD04FF000036377204609F8018BA4
:104CA000FFF732FE8046EBE77B28E0D1337A23F032
:104CB0007F0343F0200333720023C6E900334FF033
:104CC00000023B463146204600F08CF805461BE0CA
:104CD000337A23F07F0343F040033372FDB20023A5
:104CE000C6E900331DB9052384F864300CE063770E
:104CF0002046FFF71BFE80460028ACD05D212046F1
:104D0000FFF78CFE18B145462846BDE8F88F6F1EA8
:104D1000216A3046FFF703FB014618B9042384F8E3
:104D2000643098E73B464FF000022046FFF78AFFC9
:104D3000002890D02046FFF7F9FD00288BD05D2198
:104D40002046FFF76BFE0028DDD12C212046FFF71F
:104D500065FE05460028DBD10323C5E72046FFF7A3
:104D60001EFB2046FFF7C8FE054600283FF473AF40
:104D7000A1682068FFF7B5FA337AA26823F07F03B1
:104D800043F00503C6E900023372BDE73F27E3198C
:104D9000002283F8242094F82430742B0BD1337A2A
:104DA00023F07F0343F00603337201233370042F93
:104DB000AAD00223B3E7662B08D1337A327023F0EE
:104DC0007F0343F006033372052FF1E76E2BEED01D
:104DD00031465846FFF750FC002895D1032384F84C
:104DE000643073E72DE9F047DEB20446884626B901
:104DF000052380F86430002522E000234377FFF785
:104E000095FD07460028F6D07D212046FFF706FED7
:104E10000546A0B98146013E2046FFF7E1FE002885
:104E2000E9D02046FFF782FD0028E4D03A21204651
:104E3000FFF7F4FD38B9032384F8643000E03D4601
:104E40002846BDE8F087D4E9012302F803904046E4
:104E50006168FFF733FA60B9A1682068FFF741FA8B
:104E6000216A82464046FFF75AFA014608BB0423EE
:104E7000E2E7014633464FF000022046FFF7E2FE2C
:104E80000028B8D02046FFF751FD0028B3D07D217F
:104E90002046FFF7C3FD0028D1D12C212046FFF783
:104EA000BDFD0028C7D02046FFF740FD0028B3D144
:104EB000A1E7027AC0F80CA062F07F020272D9E783
:104EC000F8B5054616460C468F18BC4205D014F8B6
:104ED000011B2846FFF74FFAF7E7AA6A3244AA6295
:104EE000F8BD13B504460846019108F0FBFD019991
:104EF00002462046FFF7E4FF02B010BD2DE9F0475F
:104F000086B00DF11606074615461C46B2462846E1
:104F100021460A22002307F0F3FC303206F8012D67
:104F2000284621460A22002307F0EAFCA146A846AB
:104F3000B9F1000F08BFB8F10A0F05460C46E6D2DA
:104F4000AAEB060231463846FFF7BAFF06B0BDE8C5
:104F5000F08710B50446FFF70EFAA36A1844A06262
:104F600010BD000013B50C4B9C786CB1DA788A4206
:104F700003F10203F8D15C210190FFF7EAFF0198E9
:104F80002146FFF7E6FF04E00029FAD10349FFF7C5
:104F9000A8FF02B010BD00BF0DF900001EF900000F
:104FA00070B50D467B210446FFF7D3FF2D6815B37E
:104FB00022212046EE68FFF7CCFF013E16F8011FC4
:104FC00019B12046FFF7CEFFF8E722212046FFF770
:104FD000C0FF3A212046FFF7BCFF2146284600F0DB
:104FE00013F8B5F90A3033B12C21204605EB03152F
:104FF000FFF7AFFFDBE720467D21FFF7AAFFA06A9E
:1050000070BD0000000000002DE9F04F027A02F0B0
:105010007F030C2B8BB005460C4612D812F07E0F86
:1050200015D0023B0A2B12D8DFE813F08A018A015F
:1050300079017901B4011100B10111008D01110054
:105040001300202B00F06481402B00F04781CA49F7
:10505000A3E1D0E9008942464B464046494607F065
:10506000BFFB0028F3D0002200234046494607F04A
:10507000B7FB68B942464B464046494606F092FFA8
:1050800002460B464046494607F0AAFB0028DED1FF
:10509000002200234046494607F0ACFB30B12D21E9
:1050A0002046FFF756FF09F100439946AEA3D3E926
:1050B00000234046494607F0B1FB002857D0AF4FC8
:1050C00008254FF0000A4FF480762846FFF7C8FA0B
:1050D000404653EC102B494607F0A0FB70B17B6CA7
:1050E00000933B6C019340464946DDE9002307F0FD
:1050F0000FF9B244804689460FFA8AFA013D681CCE
:105100004FEA6606A7F10807DFD1002200234046D8
:10511000494607F08DFB78B395A3D3E900234046B9
:10512000494607F071FB38B3954F07EBC5072906D1
:1051300022D47B6802933B680393DDE90223404657
:10514000494607F057FB70B12846FFF789FA4046F9
:10515000494653EC102B07F0DBF8AAEB060A804611
:1051600089460FFA8AFA7610013D083FDFE74FF4CF
:10517000807608258246C8E74946404607F0A0FBEE
:10518000804F0646024609230A215DB2092A03F12F
:10519000FF33DBB204D9B7FBF1F7B2FBF1F2F4E76E
:1051A000304607F03BF802460B464046494606F0BB
:1051B000F7FE80463846894607F030F802460B462F
:1051C0004046494607F0A4F88046894607F078FB38
:1051D000834607F023F802460B464046494606F050
:1051E000DFFE02460B4606F0DDFE07F069FB00EB32
:1051F0000B0847450CD80136BAF1000F14D0092E20
:1052000012D90AF1010A0FFA8AFA4FF000080126B2
:105210000A21B8FBF1F301FB138242B9002D06DD30
:10522000013D98466DB2F4E74FF00008F0E70DF14C
:1052300026010A20B6FBF0F200FB1263303301F8BE
:10524000013D3346092B1646F4D80DF12606721A95
:105250002046FFF735FEEDB10DF11F012B460A2068
:10526000013B5BB25A1C09D0B8FBF0F200FB12887C
:1052700008F1300801F801899046F1E7EAB208AB7D
:10528000991A2E2001F8010CD1431944013220460D
:10529000FFF716FEBAF1000F38D065212046FFF760
:1052A00058FEBAF1000F1FFA8AF505DA2D212046C3
:1052B000FFF74FFE6D42ADB231460A20B5FBF0F26A
:1052C00000FB1253303301F8013D2B46092B95B2F8
:1052D000F4D8721A2046FFF7F3FD17E05B21204651
:1052E000FFF737FE2D686DB121462846FFF78CFE8B
:1052F000B5F90A3033B12C21204605EB0315FFF731
:1053000028FEF0E75D212046FFF723FEA06A03E0B8
:1053100001462046FFF744FE0BB0BDE8F08FD0E910
:10532000006522212046FFF714FE3544AE4205D029
:1053300016F8011B2046FFF715FEF7E72221E2E7EA
:10534000D0E90012C6E7D0E90067002E77F100032C
:105350001ADA2D212046FFF7FCFD724267EB470366
:105360002046FFF7CBFDD1E700000000D0126341DB
:10537000F168E388B5F8E43E25F90000C0F90000C3
:1053800078F9000000CA9A3B32463B46E8E7D0E98C
:105390000023E5E7037823B103492046FFF7A1FD89
:1053A000B4E70249F9E700BF2AF900002FF900002D
:1053B000F0B50C4607460FCCA1B001AD0FC50FCC20
:1053C0000FC594E8030085E8030001AE0FCE0BACD7
:1053D0000FC40FCE0FC495E8030084E803000BAEA2
:1053E0000FCE15AD0FC50FCE0FC594E803000023F7
:1053F00085E803000BA81F93FEF7AFFF01A8FEF797
:10540000ACFF386848B115A9FFF7FEFD044615A8A2
:10541000FEF7A3FF204621B0F0BD034915A8FFF712
:1054200060FD1F9CF3E700BF25F9000030B597B081
:105430000B46019030B1027A02F07F02042A1AD0A2
:10544000052A18D0029300230B9302AD0FCD0CACAC
:105450000FC40FCD0FC495E8030084E803000CA926
:1054600001A8FFF7A5FF0CA8FEF777FF02A8FEF73B
:1054700074FF17B030BD01680029E3D0184606F06C
:1054800087FBF6E770B58AB00024009423462246D5
:1054900021463148314E324D04F0A4FD0123CDE9BF
:1054A0000643304A0894127805922F4A2F49127801
:1054B00004922F4A127803922E4A029204220192F9
:1054C00000913046402103F03FFB2A462A493046EE
:1054D00006F05CFD294B2A494EF641021A80294B01
:1054E00040F287421A80284B4BF695121A80274BC0
:1054F00042F695221A80264B4FF640221A80254B01
:1055000046F6F5521A80244B49F626321A80234B70
:105510004AF255521A80224B4FF661621A80214B93
:1055200048F210421A80204B1C80204B204C4FF632
:10553000FF7208461A8001F01FFB1E4B1E4A1B8893
:105540000F49204600F00AFA1C492A4620460AB0B4
:10555000BDE8704006F01ABD1C0700208C07002033
:105560000000002022000020210000202800002050
:10557000200000201C000020E98B000026080020ED
:105580002C08002084070020880700202607002020
:10559000240800208607002028070020800700201C
:1055A0004808002082070020240700202808002047
:1055B0002C070020240000202E000020A54200001F
:1055C000F0B56749B3B00646664800F00FFB654882
:1055D00000F01AFB03A8634900F024FC4FF480504C
:1055E00007F07CFB002843D000F58053CDE90E0086
:1055F000059A03980EA90244CDE910330023CDE9A2
:105600001D028DF858308DF8483018918DF87030A3
:105610008DF87D3020918DF8C4304FF000024FF0AE
:105620000A0314A918A8FFF70DFB9DF8C4403CB964
:105630009DF87C30F3B19DF858301B071AD5032430
:1056400049494A4804F00DFD494B484853F8241095
:1056500004F020FD4749304606F046FA0E9808B19E
:1056600007F044FB03A806F0FAF9304633B0F0BD6A
:105670000346BBE7404D0021284603F040FC9DF85F
:105680005840002314F040042B6106D0149C24B130
:10569000237A13F0200F08BF002438492046FFF773
:1056A0002FF93449074606A806F01EFA384606A91F
:1056B000FFF7BCFE32492046FFF722F92D49074685
:1056C00009A806F011FA09A93846FFF7AFFE2046EF
:1056D0002C49FFF715F9044610B1FFF749F90446C4
:1056E00006A918A806F04AFA18A8FEF773FE0722C2
:1056F000114600900523204803F021FD18A806F06C
:10570000AEF9214B2B61214B1B481B88EB8206A96C
:10571000AB8204F0A1FC1E4B2B611E4B16481B886C
:10572000EB8209A9AB8204F097FC1B49124804F0F4
:1057300098FC0A222146104804F0F5FC17490E484F
:1057400004F0A8FC09A806F08AF906A806F087F973
:10575000094803F065FA03A9304606F0F6F97DE73B
:1057600035F900002C07002037F900005013002005
:10577000040000201DF900008C07002052F90000F1
:105780005AF9000064F90000050004002407002015
:105790000F0004002808002071F9000074F90000CF
:1057A0001FB501A8FFF70CFF01A9064804F068FC2B
:1057B00001A806F054F941F2707004F0F7F905B051
:1057C0005DF804FB50130020002070470069036857
:1057D0009B69184700690368DB68184713B50069BF
:1057E00049680368034C0191DB6900946946984756
:1057F00002B010BD2C080100006903681B6A18473D
:1058000000690368DB6A18470069003818BF012087
:105810007047006C70470164704790F8383010B5DD
:10582000044633B9206903685B699847002808DAA1
:1058300010BD03681B6998470028F3D14FF0FF3073
:10584000F6E794F82220A2F10803022BF0D8A36A0D
:10585000002BC2BFE36A0133E3620A2AE8D1E36B9B
:10586000013BE363002BE3D1092384F82230DFE717
:1058700010B50446006903685B6A984794F82230C3
:10588000083B022B07D8A36A002B04DD0028A2BF27
:10589000E36A1B18E36210BD90F82230092B73B540
:1058A00004462FD10026206903681B69984748B336
:1058B000206903685B699847C5B20A2D0DD184F849
:1058C0002250E06B30B3206903681B69984794F855
:1058D00022300A2B22D002B070BD0D2DE3D0284615
:1058E00007F0ECF90028DED0E06B8DF804501022B0
:1058F0000501002101A88DF8056008F075F928441C
:10590000E063D0E794F822300A2BDAD0092BDAD101
:105910000020E0E7092384F82230DCE7E36B9842BB
:10592000A8BF1846D7E7000000234FF0FF32C0E9B8
:105930000A23084A80F8223012680263064A43624A
:10594000126880F83830C36347F23053426303640F
:10595000704700BF500000205400002038B50446B6
:105960001D4600204FF47A73C4E901030A4B2360FB
:10597000C4E9041204F1180004F02CFB40F20113F6
:1059800006492584A4F8443004F1480006F0ACF838
:105990002046FFF7C9FF38BD28FB00001DF90000B5
:1059A00010B50446006903689B6A98472046BDE825
:1059B0001040FFF7B9BF000038B50446006915462E
:1059C00004F04FFB0449206904F04BFB2069294691
:1059D000BDE8384004F05EBB4FF9000038B504461E
:1059E0000D460069114604F03CFB1D49206904F096
:1059F00038FB2946206904F034FB1A49206904F079
:105A000049FB94F84530F3B16369B3B11649206995
:105A100004F027FBD4E9040104F023FB238C502B72
:105A200008D01249206904F01CFB218C20690A224D
:105A300004F079FB206904F01BFB0D4B0D491A683B
:105A40002046FFF7B9FF94F8443023B10A4A0B49C6
:105A50002046FFF7B1FF012384F82230002038BD33
:105A600072F900008CFA000096FA00009DFA00001E
:105A70004C0000209FFA0000AAFA0000B0FA0000D3
:105A800038B504460069154604F0EBFA054920696B
:105A900004F0E7FA206929460A22BDE8384004F0FC
:105AA00044BB00BF4FF9000010B50446006904F084
:105AB000DFFA022384F8223010BD90F82230012B47
:105AC00013B5044605D8CDE90012FFF7EDFFDDE977
:105AD0000012206903685B6802B0BDE810401847F7
:105AE00090F82230012B13B5044603D80191FFF73B
:105AF000DBFF0199206903681B6802B0BDE8104014
:105B0000184710B50446206903681B69984720B1FF
:105B1000206903685B699847F5E710BD2DE9F347F5
:105B20001F4690F82230083B022BDDE90A89044623
:105B30000D46924604D8FFF7E4FF2046FFF7F4FE37
:105B400094F82260012E47D894F844305BB1D4E930
:105B50000401228C0368B9B921490091E1690191DE
:105B6000DB69694611E020690368DB6A9847002811
:105B7000EDD0294652462046FFF730FF054650B18A
:105B8000284602B0BDE8F0871B6A98470028F0D18C
:105B90004FF0FF35F4E727B112493A462046FFF7A8
:105BA0000BFFB8F1000F0DDC002EE9D12046FFF706
:105BB0007BFF002EE4D0236842465B6849462046BE
:105BC0009847DDE7084942462046FFF759FFB9F1FB
:105BD000000FE9D00126E9E76FF00105D0E700BF2B
:105BE0002C080100BBFA0000C8FA000007B500232A
:105BF0004FF0FF32CDE90023024AFFF78FFF03B0D9
:105C00005DF804FBD7FA000090F82230012B2DE953
:105C1000F047044654D9DFF8D89000254FF0030828
:105C200000236362022384F8223003F07FFF4F4693
:105C300006464FF0040A0A2D45D003F077FF236C87
:105C4000801B984245D2236820461B69984768B359
:105C5000236820465B699847431C0546EDD094F8BD
:105C60002230022B05D0032B13D003F05FFF064632
:105C7000E1E73B782A2B05D0834203D06FF0030085
:105C8000BDE8F0877A787B1C0AB984F822801F4629
:105C9000EBE7A0F13002092A97BF636A84F822A0DB
:105CA0000A2101FB032398BF6362DEE74FF47A7099
:105CB00003F07CFFBFE70A2DE0D06FF00200DFE7C2
:105CC0006FF00100DCE7636AC72B02DC652B18BFAD
:105CD000002594F82230042BEDD1606AC72801DC3E
:105CE00065289DD10A2D18BF6FF00200C8E700BFDC
:105CF000DBFA0000036810B504465B69984794F826
:105D00002230A3F10802022AC0B250D9052B3AD0A2
:105D1000072B42D0042B0CD1226B1378834214D171
:105D2000531C2363537823B9C4E90A33052284F84A
:105D300022200A283BD1042384F822301D4B1B6803
:105D400023631D4B1B68636331E0636B19788142E9
:105D50000BD15A1C62635B78002BEAD1012384F8D3
:105D60003830062384F82230E3E7124909688A4272
:105D7000F7D1114A12689342F3D10D28F1D10723CC
:105D800084F8223013E0A0F13002092AE9D8A36A8E
:105D90000A2101FB0323A362CBE70A2807D194F869
:105DA00038302BB1092384F822300023E36310BD7F
:105DB0000823E5E7500000205400002038B50446D1
:105DC00003F0B4FE054694F82230083B022B01D8BC
:105DD000002038BD03F0AAFE236C401B984209D274
:105DE000236820461B69984760B94FF47A7003F026
:105DF000DDFEE8E794F82230083B022BE8D96FF08B
:105E00000200E6E72046FFF775FFD9E790F8223059
:105E1000083B022B10B5044601D9FFF7CFFFA06A5B
:105E200010BD00007FB5054608460E46FFF7EEFFA1
:105E30001649044601A805F057FE002C0EDD214648
:105E400001A805F02AFE48B90021284605F04CFEBD
:105E500001A805F004FE284604B070BDF36AA34211
:105E600009D0304604F0FBFB431C04D0C1B201A8AA
:105E700005F0C8FEE7E7002C02DD039B9C42E3D15E
:105E800001A9284605F061FEE2E700BF1DF9000008
:105E900038B590F82230083B022B044601D9002087
:105EA00038BDFFF7B3FF0130F9D02046E56AFFF7B0
:105EB000ADFF8542B4BF00200120F1E7FFF7E8BF46
:105EC000FFF7E6BF07B5002300931A4619460348BB
:105ED00004F088F803B05DF804FB00BF4C08002014
:105EE000704710B5044605F0E1FE204610BD0000E5
:105EF0000348044B044A0549036006F047B800BF55
:105F00005408002074FB000000000020E15E000047
:105F100007B5002300931A461946034804F062F8B7
:105F200003B05DF804FB00BF5808002008B500F07E
:105F30005BFB034B53F82030002283F8492008BD57
:105F400000090020F8B5044610300D4617461E46DD
:105F500000F0C6F904F1240000F0C2F90020C4E901
:105F60000E00C4E9100084F8480084F8490060720B
:105F70002DB90A4B0A4A0B48272106F03DFE9DF831
:105F8000183063719DF81C30E3719DF82030256056
:105F90002771A67123722046F8BD00BF7CFB00006C
:105FA0008DFB0000E1FB00001FB5044604AB006858
:105FB00003E9060004F0A4F99DF80D30227AE17996
:105FC00020680093002304F027FB2068029A9DF8C4
:105FD0000C1004F0B3F9206804B0BDE8104004F0E0
:105FE00085B9000017B4837A6C4684E8060043B193
:105FF0009A070DD5EFF31083B3FA83F35B09C372ED
:1060000072B694E8060003B05DF8044BFFF7CCBF0E
:10601000DB0742BF014B8289DA60F2E700280040CB
:10602000837A53B19A0703D5C37A33B162B6704706
:10603000DB0742BF014B82891A617047002800408C
:10604000006804F068B9000008B5006804F0E4F9DD
:106050000028A3BF0C235843024B0020A8BF1858A8
:1060600008BD00BF3CFC000008B5006804F0D4F98E
:106070000028A3BF044B0C2202FB00304FF0FF307E
:10608000A8BF406808BD00BF3CFC000008B5006820
:1060900004F0C2F90028A3BF044B0C2202FB00301D
:1060A0004FF0FF30A8BF806808BD00BF3CFC000077
:1060B0002DE9F04100F1100686B00546304600F0AB
:1060C00065F9002840F0818005F12407384600F08A
:1060D0005DF90446002872D12846FFF7D7FFC1B208
:1060E000304600F051FA0221304600F065FA0122F4
:1060F0003749DFF8E080304600F042FA304600F0E1
:1061000073FA48F820502846FFF7AEFFC1B2384670
:1061100000F03AFA0221384600F04EFA384600F014
:1061200063FA48F820502846FFF78EFF4FF0010829
:10613000014623462246CDE90344CDE901480094B7
:10614000304600F053FAA8632846FFF77DFF234648
:1061500002462146CDE90344CDE901840094384646
:1061600000F044FAE863B02006F0B8FD286400B3FC
:10617000303085F8488068642A6CAB6B224403F1A8
:10618000100153F8040B42F8040B8B42F9D1103480
:10619000302CF1D10023696CEA6B194402F1100034
:1061A00052F8044B41F8044B8242F9D11033802B52
:1061B000F1D195F8483043B9384600F0A1F930469E
:1061C00006B0BDE8F04100F09BB906B0BDE8F08133
:1061D0002D5F000000090020437A70B504461BB90A
:1061E000012242724381C36094F8483013B92046BB
:1061F000FFF75EFF0F4E2079182505FB006393F92A
:10620000081003F06DFEA07905FB006393F90810F8
:1062100003F066FE607905FB006595F9081003F050
:106220005FFE054B204693E80600BDE87040FFF78F
:10623000BBBE00BF5C030100F80800201FB50E4B79
:106240000E4A1A6000249C8002222423CDE90032E9
:106250000B490294222323220A48FFF773FE0323EB
:10626000CDE9014331230093074908483023322206
:10627000FFF768FE04B010BDF808002000093D00DB
:10628000241300206008002000130020AC08002028
:10629000074B196841B9EFF31080064A18B972B676
:1062A000BFF35F8F012111701A6801321A607047C5
:1062B0008809002084090020074B1A6852B11A6827
:1062C000013A1A601B682BB9044B1B7813B1BFF35A
:1062D0005F8F62B6704700BF8809002084090020E4
:1062E000FF2202704FF44071002242704280818090
:1062F0008260C26002617047184A02EB011110B45B
:1063000091F84E10CCB211F001010CD001788368E5
:1063100002EB0112012182F84E1004224270D3B127
:106320005DF8044B184714F0020F08D00478C368D6
:1063300002EB0412022482F84E404170EFE761073D
:1063400009D50178036902EB0112042182F84E108D
:1063500007224270E3E75DF8044B704700A000415C
:1063600008B5FFF795FF074B198C074B01F01F018C
:1063700053F8210008B1FFF7BFFFBDE80840FFF761
:106380009BBF00BF00A000418C0900202DE9FF4108
:1063900003781F2B04464FF0000040F29E80504EC1
:1063A0002070012223781F2B07D8316802FA03F0EE
:1063B00008420AD001332370F4E701208DE003F096
:1063C0000F03043B6344187644E0FFF761FF37682E
:1063D000002F43D1434A444D1369444843F40073AA
:1063E00013612B8867F341032B802B8800F500781D
:1063F00043F001032B80394668634FF40072C5F8FF
:10640000388006F089FC39464FF40072404606F0A9
:1064100083FC374ADFF8E4C010685168354F1289B1
:1064200040F602732B8001AB03C301AD1A80C0207C
:1064300005224FF0010E35F9023B002BBFDB4FEA7E
:10644000531803F01F013B440EFA01F147F82810DE
:1064500083F80003013A12F0FF02ECD12278306891
:10646000012101FA02F303433360234B43F8224036
:1064700004321D4B120198586FF341009850227856
:106480000432120198580843985020781A698140C4
:1064900022EA010119612278043203EB02125179D8
:1064A0006FF3010151712278207904321201995859
:1064B00060F30E21995022786079043212019958C4
:1064C00060F31551995022780432120199586FF3F4
:1064D0001B619950FFF7F0FE002004B0BDE8F08189
:1064E000800900200008004000A0004100030020B7
:1064F00084FC000000E100E08C09002000ED00E0D9
:1065000010B50446FFF7C4FE6378062B58B228D0B6
:1065100023781F2B28D801229A40144B19680A426D
:1065200022D0196821EA02021A601B6893B9104A46
:106530004FF00041C2F88010BFF34F8FBFF36F8F51
:106540000C4A118863F3410111800B4A116963F30E
:10655000492111612178094A002042F82100FF22D7
:106560002270FFF7A9FE10BD0220FAE78009002083
:1065700000E100E000A00041000800408C0900207C
:10658000023240F82210704738B5037801711F2B92
:1065900004460D460DD8FFF77BFE2378054A0433E9
:1065A0001B01D15865F30E21D150BDE83840FFF7EB
:1065B00083BE38BD00A0004138B5037841711F2B60
:1065C00004460D460DD8FFF763FE2378054A0433D1
:1065D0001B01D15865F31551D150BDE83840FFF784
:1065E0006BBE38BD00A00041007870472DE9F74F21
:1065F000054600789DF830B09DF838900F9E9DF8C4
:1066000040701F2890468A469DF834201C4603D9C6
:10661000002003B0BDE8F08F6B78062BF8D0AB7884
:10662000002B5FD010210846019206F04FFB002896
:10663000EED02B782E49019A01EB03110B46D3F8CB
:106640000CC0BCF1000F05D0D3F80CC0614501D0DF
:10665000DB68F4E7D86001239B45AB7046D0BBF103
:10666000020F08BF0423018841F001010180018865
:106670006FF34201018001886FF3C401018001883A
:106680006BF309210180018862F38A21018001886E
:1066900069F3CB210180018867F30C310180018807
:1066A00066F34F310180A1B24180C0F804A032B13D
:1066B000426804FB03F107B1B14011444160C0F8E6
:1066C0000880B9F1000F05D05C43836807B9B44076
:1066D0001C448460EB781BB12A78054B03EB021352
:1066E000C36096E7024B03EB0010B4E70223BAE75E
:1066F0000003002001F024B80846114601F0CEB88E
:10670000436803B118477047F8B5054608460C467C
:10671000164607F0E7F90746304607F0E3F9324638
:10672000C3B2F9B2204600F0C5FF013016D003F025
:10673000FDF90024064603F0F9F92B68801B984206
:106740000AD22846FFF7DCFF642003F02FFA00F09E
:10675000F7FF02280446EED92046F8BD0424FBE7E3
:1067600013B500242346224600942146044803F032
:1067700039FC044B4CF25032C3E9002402B010BD86
:10678000140A00200C0A002007B503688DF80710D2
:106790005B6801220DF10701984703B05DF804FB27
:1067A000017570477047007CFF3818BF01207047A3
:1067B00030B587B0044602A80191154603F00AFCE3
:1067C0000199084802AAFFF797FF48B1064A2368D3
:1067D0000492039A0592DB692A4604A92046984749
:1067E00007B030BD0C0A00202C08010070B5037CF6
:1067F000FF2B04460D46164602D003689B6A984755
:1068000000F0B4FCFF28024620741FD068683146AF
:10681000002300F0DDFA03F089F942F20F76054615
:1068200023682046DB6A984740B903F07FF9401B94
:10683000B04203D8012003F0B9F9F1E723682046FC
:10684000DB6A9847003818BF012070BD0249034831
:1068500003F020FC0020F8E78EFC0000501300201D
:1068600070B5037CFF2B04460D46164602D0036824
:106870009B6A984700F07AFCFF28024620741FD0DC
:1068800068683146022300F0A3FA03F04FF942F2A0
:106890000F76054623682046DB6A984740B903F027
:1068A00045F9401BB04203D8012003F07FF9F1E71E
:1068B00023682046DB6A9847003818BF012070BD66
:1068C0000249034803F0E6FB0020F8E78EFC0000D5
:1068D0005013002070B5037CFF2B04460D4616466E
:1068E00002D003689B6A984700F040FCFF280246EC
:1068F00020741FD068683146042300F069FA03F061
:1069000015F942F20F76054623682046DB6A984760
:1069100040B903F00BF9401BB04203D8012003F04B
:1069200045F9F1E723682046DB6A9847003818BF2D
:10693000012070BD0249034803F0ACFB0020F8E7DA
:106940008EFC000050130020F7B5037CFF2B04469B
:106950000E46174602D003689B6A984700F006FC73
:10696000FF280546207427D0304607F0BBF80223E5
:10697000CDE90053C1B23B463046002200F06EFA2A
:1069800003F0D4F842F20F76054623682046DB6A0E
:10699000984740B903F0CAF8401BB04203D8012021
:1069A00003F004F9F1E723682046DB6A98470038D2
:1069B00018BF012003B0F0BD0249034803F06AFB91
:1069C0000020F7E78EFC000050130020F7B5037C91
:1069D000FF2B04460E46174602D003689B6A984771
:1069E00000F0C4FBFF280546207427D0304607F08E
:1069F00079F80423CDE90053C1B23B46304600226A
:106A000000F02CFA03F092F842F20F760546236864
:106A10002046DB6A984740B903F088F8401BB04233
:106A200003D8012003F0C2F8F1E723682046DB6AAF
:106A30009847003818BF012003B0F0BD0249034851
:106A400003F028FB0020F7E78EFC00005013002025
:106A50002DE9F0410446007CFF280F46164605D17B
:106A60000123636000252846BDE8F081002AF7D0A5
:106A700092B200F0EFFA054690B9237D2BB9207C45
:106A800000F03EFA01236360EDE723683246D3F855
:106A90004480394601232046C0470028EFD00546F0
:106AA000207C00F019FB0028DDD1D9E7017CFF290B
:106AB00002D0024800F01FB900207047440A0020AD
:106AC000036813B51B690446984750B1217C0648FA
:106AD00001230DF1070200F04DF99DF8070002B007
:106AE00010BD4FF0FF30FAE7440A002013460A4673
:106AF000017C014800F03EB9440A0020017C0148B5
:106B000000F029B9440A002007B50023007C019356
:106B10006A4601A9ADF8003000F096FD9DF80030FE
:106B20009DF8010000EB032080B203B05DF804FB88
:106B300013B50446084600236A4601A9007C019368
:106B4000ADF8003000F080FD01A9204603F056FAB0
:106B5000204602B010BDF8B506460F464BB10525DC
:106B600094B2307C2246394600F074FA10B9013DE7
:106B7000F7D10020F8BD000000214FF47A72C0E97F
:106B80000112034A0260FF2202740122027570475B
:106B9000ACFC0000007CFF2801D000F0E7B9002029
:106BA0007047000038B50446007CFF2812D000F082
:106BB000A7F932252046FFF7EDFF28B1013D03D0AC
:106BC000642002F0F3FFF5E7217C034800F078F839
:106BD000FF23237438BD00BF440A002038B5037C6E
:106BE000FF2B054618D003681B69984708B10120A0
:106BF00038BD2846FFF7CEFF0A28F8D840F2EF420A
:106C000022FA00F3DB4313F00104F0D1297C03489E
:106C100000F056F8FF232B740020E9E7440A002017
:106C200007B5002300931A461946034803F0DAF922
:106C300003B05DF804FB00BF1C0A002007B5002369
:106C400000931A461946034803F0CCF903B05DF8E7
:106C500004FB00BF240A00207047000007B5002392
:106C600000931A461946034803F0BCF903B05DF8D7
:106C700004FB00BF2C0A002007B5002300931A462E
:106C80001946034803F0AEF903B05DF804FB00BFFA
:106C9000340A002007B5002300931A46194603481A
:106CA00003F0A0F903B05DF804FB00BF3C0A00202C
:106CB00010B578220446002106F02EF8204610BDBB
:106CC0000C2370B503FB01F405460619005928B1E1
:106CD00006F00CF8002373602B51B36070BD13B540
:106CE0000024214601340190FFF7EAFF0A2C0198A5
:106CF000F7D102B010BD2DE9F3410C264E438719A0
:106D00000446BB680D46FBB950F80680B8F1000F89
:106D100007D140F2DC5005F0E1FF7860A051C7F8E0
:106D2000088040F2DC53A159ADF806300DF106029F
:106D3000E8B200F053F938B1A3597B600C2303FB90
:106D40000543BDF806209A600C2000FB0544A068AE
:106D500002B0BDE8F08138B505460C46FFF7CBFF21
:106D600028B10C2000FB04504368187838BD4FF060
:106D7000FF30FBE7F8B507460C4616461D46FFF701
:106D8000BAFF88B10C2101FB04748542A8BF0546F7
:106D900061682A46304605F0B1FF63682B446360A2
:106DA000A3685B1BA3602846F8BD000010B5054C26
:106DB0002046FFF77DFF2046034A0449BDE8104006
:106DC00005F0E4B8440A002000000020DF6C000059
:106DD0001FB58DF80230204B01901B788DF80320F1
:106DE0000C460BB900F0F0F9002000F07DFA00F03D
:106DF00035FA04212D2000F0FDFB04210DEB0100EC
:106E0000002200F001FB2046002100F0DFFB0DF125
:106E100003000022012100F0F7FA012211460DF1D2
:106E2000020000F0F1FA00F043FA002000F05CFAF2
:106E300000F014FA00238DF80E308DF80F300DF1AC
:106E40000E020DF10F0301212D2000F006FB00F0D2
:106E50002FFA04B010BD00BFC40A00207FB51D4644
:106E6000264B01921B7806460C460BB900F0ACF994
:106E7000002000F039FA00F0F1F905212D2000F092
:106E8000B9FB21460022304600F0BEFA0421002260
:106E90000DEB010000F0B8FA0021284600F096FB47
:106EA0000022012108A800F0AFFA0122114609A82A
:106EB00000F0AAFA113414F0030503D000F042FAEE
:106EC0000134F8E700F0F4F99DF82400031F58425C
:106ED000584100F009FA00F0C1F90DF10F030DF16E
:106EE0000E0201212D208DF80E508DF80F5000F06C
:106EF000B4FA00F0DDF904B070BD00BFC40A002090
:106F00001FB5194B8DF807001B780BB900F05CF921
:106F1000002000F0E9F900F0A1F901212E2000F095
:106F200069FB012211460DF1070000F06DFA00F037
:106F300009FA00F007FA00F0BBF9002000F0D4F9DC
:106F400000F08CF900238DF80E308DF80F300DF124
:106F50000E020DF10F0301212E2000F07EFA00F049
:106F6000A7F905B05DF804FBC40A00201FB51A4B51
:106F70008DF807001B780BB900F026F9002000F00F
:106F8000B3F900F06BF901212F2000F033FB01224F
:106F900011460DF1070000F037FA00F0D3F900F0C8
:106FA000D1F900F085F9002000F09EF900F056F9C3
:106FB00000238DF80E308DF80F300DF10E020DF11B
:106FC0000F0301212F2000F048FA00F071F99DF81D
:106FD0000E0005B05DF804FBC40A002037B50D466D
:106FE00014468DF8070000F019FB10B9208003B09B
:106FF00030BD174B1B780BB900F0E6F8002000F00D
:1070000073F900F02BF90221452000F0F3FA002279
:1070100001210DF1070000F0C2FA012202212046F1
:1070200000F0BDFA00F08EF900F042F9002000F007
:107030005BF900F013F922462946452000F07FFA5B
:1070400000F036F92088003818BF0120CFE700BFD4
:10705000C40A002030B51F4B85B01B788DF807009F
:107060000D4614460BB900F0AFF8002000F03CF9D3
:1070700000F0F4F80221442000F0BCFA00220121C3
:107080000DF1070000F08BFA21460122284600F09E
:1070900086FA093414F0030503D000F053F90134E3
:1070A000F8E700F005F9284600F01EF900F0D6F8E0
:1070B0000DF10D020DF10E014420ADF80E508DF8CA
:1070C0000D5000F0FFF900F0F3F8BDF80E0005B028
:1070D00030BD00BFC40A002030B585B00024224D69
:1070E0008DF807008DF80E408DF80F402B780BB906
:1070F00000F06AF8002000F0F7F800F0AFF8012186
:107100002A2000F077FA012211460DF1070000F065
:107110007BF900F017F900F015F900F0C9F800202C
:1071200000F0E2F800F09AF80DF10F030DF10E02F5
:1071300001212A2000F091F900F0BAF89DF80E30F4
:107140007BB9642002F032FD9DF80E300134A4B208
:107150000BB9192CCAD1B4F1190018BF012005B020
:1071600030BD0024F7E700BFC40A0020154B1B7890
:1071700007B50BB900F028F8002000F0B5F800F0D2
:107180006DF800213F2000F035FA00F091F8002062
:1071900000F0AAF800F062F8FF238DF80630002313
:1071A0008DF807300DF106020DF1070301213F2094
:1071B00000F053F900F07CF89DF8060003B05DF88C
:1071C00004FB00BFC40A002070B51F4E1F4C204DA9
:1071D0001F232120337001211E232370287002F009
:1071E000F9FD3078002102F0F5FD2078012102F050
:1071F000F1FD01211D2002F0EDFD01211D2002F015
:107200002DFE2878012102F029FE0021207802F0CD
:1072100025FE0A2002F0CAFC0121207802F01EFEA1
:1072200040F2EE2002F0C2FC00211D2002F016FE0A
:1072300000211D2002F0CEFD0648FEF7CDFF064BD3
:1072400001221A7070BD00BF5800002059000020B4
:107250005A00002060080020C40A002037B5104BF7
:1072600000930024ADF8044002AB13E906000D487A
:107270000D4DFEF7B7FE0D4B2146187802F0EEFDDE
:1072800002F054FC0446287802F012FE012804D0D3
:1072900002F04CFC031B042BF5D903B030BD00BF3A
:1072A00000127A0060080020580000205A000020D8
:1072B00008B5054B0121187802F0D0FDBDE8084063
:1072C0000248FEF7ADBE00BF5A0000206008002053
:1072D00082B08DF807009DF80710024802B0FEF753
:1072E000AFBE00BF60080020F8B5054602F01EFCE6
:1072F000094E044642F20F77307802F0D9FD50B1C2
:10730000002DF9D002F012FC001BB842F4D803485B
:10731000FFF7F6F9F0E7F8BD580000200C0A00204E
:1073200010B50446FF20FFF7D3FF207010BD38B51D
:107330000C4605460846FFF7F3FF2078431B5842EA
:10734000584138BD07B500230DF107008DF807300F
:10735000FFF7E6FF9DF8070003B05DF804FB38B5C2
:10736000044640F2E935FFF7EDFFEF2808D0013D74
:1073700002D0A042F7D12046231A5842584138BDC6
:107380004FF0FF30FBE72DE9F74F05460024E020E2
:10739000884616468DF80740FFF7E1FF18B9002030
:1073A00003B0BDE8F08F0DF10700FFF7B9FF9DF8BE
:1073B000073045F08005AB42F1D1FFF7C3FF05462A
:1073C0000028ECD003B203EB8309FF20FFF780FF16
:1073D000305506EB040B0027335DBB4208DDFF2070
:1073E000DBF801A0FFF774FF0AF807000137F3E7A5
:1073F00005344C45E9D14545D1D10DF10701EE20C9
:10740000FFF795FF0120CBE7F8B5074608460D4684
:107410001646FFF75DFF0024A54204DD385DFFF747
:1074200057FF0134F8E7012E04D1BDE8F840EE2003
:10743000FFF74EBFF8BD10B50446000AFFF748FF3E
:10744000E0B2BDE81040FFF743BF10B50446FF208F
:10745000FFF73EFF04B1207010BD2DE9F341054652
:107460000024E020884617461E468DF80740FFF7A7
:1074700076FF18B9002002B0BDE8F0810DF10700D9
:10748000FFF74EFF9DF8073045F08005AB42F1D184
:107490000DF10700FFF744FF9DF807304345E9D1A0
:1074A0003046FFF7D2FF3378A34204DD3819FFF7E7
:1074B00037FF0134F7E70DF10701EE20FFF737FF43
:1074C0000120D8E7F7B505460024E0200F46164610
:1074D0008DF80740FFF743FF10B9002003B0F0BD5F
:1074E0000DF10700FFF71CFF9DF8073045F0800500
:1074F000AB42F2D1FFF726FF58B13046FFF7A5FFA8
:107500003378A34205DDFF20FFF7E2FE3855013452
:10751000F6E70DF10701EE20FFF709FF0120DDE797
:1075200038B50446FF20FFF7D3FE0546FF20FFF7DE
:10753000CFFE40EA052398B204B1208038BDF7B5EC
:1075400005460024E0200F4616468DF80740FFF759
:1075500006FF10B9002003B0F0BD0DF10700FFF7E2
:10756000DFFE9DF8073045F08005AB42F2D1FFF712
:10757000E9FE68B13046FFF7D3FF3288A3B29A42E2
:1075800006D9FF201D46FFF7A3FE01347855F4E726
:107590000DF10701EE20FFF7CAFE0120DBE770B511
:1075A000044608460D461646FFF745FF2544AC4203
:1075B00004D014F8010BFFF78BFEF8E7012E04D17D
:1075C000BDE87040EE20FFF783BE70BD38B50446BD
:1075D00002200D46FFF77CFE200AFFF779FEE0B29D
:1075E000FFF776FE012D04D1BDE83840EE20FFF70D
:1075F0006FBE38BD38B50546E0200C46FFF768FE83
:1076000005F07F00FFF764FE2046FFF761FE24B916
:10761000BDE83840EE20FFF75BBE38BD08B51D2041
:1076200002F046FC003818BF012008BD07B5002352
:1076300000931A461946034802F0D4FC03B05DF8E3
:1076400004FB00BFBC0A00207FB500230393ADF804
:107650001030174B8DF807001B78CDF80D10CDF8C2
:1076600012200BB9FFF7B0FD0020FFF73DFEFFF73A
:10767000F5FD01213A20FFF7BDFF012211460DF172
:107680000700FFF7C1FEFFF75DFEFFF75BFEFFF7A8
:107690000FFE0020FFF728FEFFF7E0FD03AA0221FE
:1076A0003A20FFF770FEFFF703FE07B05DF804FB1A
:1076B000C40A0020F7B51C46204B1B7807460D4630
:1076C00016460BB9FFF780FD0020FFF70DFEFFF710
:1076D000C5FD02211120FFF78DFF29460022384603
:1076E000FFF792FE214601223046FFF78DFE063558
:1076F0002C4414F0030503D0FFF724FE0134F8E70F
:10770000FFF7D6FD2846FFF7EFFDFFF7A7FD0DF1C8
:1077100007030DF10602012111208DF806508DF8A6
:107720000750FFF79AFE10B9FF238DF80630FFF7D8
:10773000BFFD9DF9060003B0F0BD00BFC40A0020E4
:10774000154B1B7807B50BB9FFF73EFD0020FFF77F
:10775000CBFDFFF783FD00212020FFF74BFFFFF754
:10776000A7FD0020FFF7C0FDFFF778FDFF238DF890
:10777000063000238DF807300DF106020DF10703E6
:1077800001212020FFF769FEFFF792FD9DF806001A
:1077900003B05DF804FB00BFC40A0020204B1B7837
:1077A00037B504460BB9FFF70FFD0020FFF79CFD2E
:1077B000FFF754FD01213420FFF71CFF204606F09F
:1077C00091F90122C1B22046FFF71EFE204606F0C5
:1077D00089F9441D14F0030503D0FFF7B3FD01340C
:1077E000F8E7FFF765FD2846FFF77EFDFFF736FD5A
:1077F0000DF107030DF10602012134208DF806502A
:107800008DF80750FFF729FEC4B2FFF751FD24B1F0
:107810009DF80640631E5C425C41204603B030BDCB
:10782000C40A002030B587B0FF2300931A461946DA
:10783000054604A802F0D6FB174B1B780BB9FFF7DF
:10784000C3FC0020FFF750FDFFF708FD00213520A5
:10785000FFF7D0FEFFF72CFD0020FFF745FDFFF7F7
:10786000FDFC00238DF80B3003AA0DF10B03012161
:107870003520FFF7F2FD044640B103A9284602F087
:10788000C5FB6C680598241A18BF0124FFF710FD8A
:10789000204607B030BD00BFC40A002010B50C461A
:1078A000FFF77CFF20B12046BDE81040FFF7BABFCC
:1078B00010BD000007B5002300931A46194603487F
:1078C00002F090FB03B05DF804FB00BFC80A002083
:1078D0000368444A934270B57AD002F580629342BD
:1078E00078D0414A934277D002F50052934275D046
:1078F0003E4A934274D002F58062934262D10522DF
:107900003B493C48D50001EBC202927902F12004C8
:1079100050F824606FF3861640F8246050F8246015
:107920007606FBD4920002F1804202F5E052D2F8D2
:10793000800020F04F0646F0410666F30700C2F8CB
:1079400080002C4850F824205606FBD51A686FF3A7
:1079500041021A601A699407C2F34000FAD41A6807
:1079600060F383021A601A6860F30A221A601A7BB5
:10797000012060F301021A7318711A69C2F38004BE
:107980005207FAD429440120B1F904205872002A80
:107990008B8818DB03F01F03984053099B0003F109
:1079A000604303F56143C3F88000BFF34F8FBFF31B
:1079B0006F8F02F1604202F56142C3F8800182F8E4
:1079C0000043186070BD0C4A03F00F03D454F9E76C
:1079D000002295E7012293E7022291E703228FE735
:1079E00004228DE70038004000A00141001400424D
:1079F00000FD0000001C004014ED00E003680022C0
:107A00009A821A69D006FCD489B299831A69510600
:107A1000FCD41A6842F002021A601A691207FCD4F8
:107A2000704703685A79042161F347125A715A79F1
:107A30005209FCD1988A80B2704710B50468FFF7EC
:107A4000F0FF23686FF34103236023691B07FCD415
:107A500010BD00002DE9F84394469DF93C50109A62
:107A60000446002861D09DF824703148A4F85C10C9
:107A7000052B28BF0523052F28BF0527002D08BF8C
:107A80000125002A08BF0246002D84F867502260B5
:107A9000B8BF6D429DF82C2084F86230EDB284F8B6
:107AA000612003EB43039DF8302084F8342015FB5C
:107AB00001F19DF8342084F844205D009DF83820C1
:107AC000A4F85E104FF00008EDB284F865C084F8A9
:107AD000637084F86820C4F84880C4F8248028467D
:107AE00005F0FCF881462061E8B1380105F0F6F8B0
:107AF0000646A06498B108992A46484605F0FEF863
:107B00004346DAB2974202D80020BDE8F8830A9AC9
:107B1000D15CA26C02EB031201331173F1E748460A
:107B200005F0E4F826610220EFE70320EDE700BF4F
:107B30000014004238B5044610B3436A03B394F806
:107B40006E3003F0FF05002BF9D12046FFF775FFDB
:107B5000A36B226C1A6094F862202B46DBB202EB16
:107B60004202B3EB420F05F101050ADB0025B4F830
:107B70005E309D420BD3A26A236B1360E26A1360EE
:107B800038BD22690021D05C02F068F9E3E794F87F
:107B90006100012102F062F900BF00BF00BF0021B7
:107BA00094F8610002F05AF900BF0135DFE7F8B53B
:107BB0000446002841D090F8653090F86620013BDB
:107BC000DBB280F86B30531EDBB280F86C30012AD8
:107BD00084BF90F86C3003F1FF334FF000058CBF89
:107BE000DBB2012380F86D30012680F86E50856588
:107BF00094F86330EAB2934209D82046FFF768FE52
:107C000020464FF47A71BDE8F840FFF7F7BEA16C4B
:107C1000170101EB02120121107B02F0DBF8A36CCB
:107C200094F86D103B443140187B18BF0121760059
:107C300002F014F9F6B20135DAE7F8BD2DE9F84F94
:107C40000446002800F00082D0F81080B8F1000F40
:107C500002D10220BDE8F88F90F86130BF4D90F856
:107C6000620018267343EA1815F903C05768012308
:107C700003FA07F700EB40024FEACC1C02FA03F1CB
:107C8000B9464FF0000E5FFA8EF28A4226DB19F0F9
:107C90007F4F14BF0823002319F47F0F18BF43F050
:107CA000040319F47F4F18BF43F0020319F0FF0FCC
:107CB00018BF43F00103013B01260B2B00F20481A6
:107CC000DFE813F01F001F00FE001F000201020189
:107CD00002011F00020102010201FE0018F8022049
:107CE000724305EB020AAA56BCEBC21F0EF1010E4D
:107CF00040F0AC81DAF8042003FA02F249EA020902
:107D0000C1E784F8606094F8633094F860A006FAE4
:107D100003F3B4F85E6084F86630073606F4FF6655
:107D2000DBB2734394F8656073430AFB03F694F87F
:107D30006830E66403B17600062310FB0AF003FB0B
:107D4000006004F0CBFF03466062002881D08119F7
:107D5000BAF1010F616140F0C88098F800304FF02F
:107D6000180808FB03535A68D20884F86420D2B27A
:107D7000D20047FA02F129FA02F20A43E261A16154
:107D8000324604F0C9FF002394F862205E1C02EB27
:107D90004202DBB2B3EB420FC0F2988094F8651058
:107DA00094F866206E4BB3FBF2F301228A40013A4D
:107DB000B3FBF2F39F2B40F201816365636D94F88E
:107DC0003420236518235A43A818AA566549D201BE
:107DD0001144A162644911444268E162012707FA33
:107DE00002F2226394F8442094F861005343E918A6
:107DF000EB565C4ADB011A44A2635B4A1A444B68A7
:107E0000E26307FA03F300262364394684F86A60C4
:107E100001F0E0FF94F86100314602F01FF894F899
:107E20003400394601F0D6FF94F83400314602F0B0
:107E300015F894F84400394601F0CCFF94F844005A
:107E4000394602F00BF894F86230771C03EB4303D9
:107E5000F6B2B6EB430FC0F2B380A36C1B7B1827BE
:107E60007B430126EA56414B84F86960D2011344F2
:107E7000236294F8633006FA03F3023BDBB24FF05F
:107E8000000884F86D30B246C34694F863205FFA68
:107E900088F39A4200F2A08094F86120182353439B
:107EA000304AEB56DB011A4462602F4A1A44A26042
:107EB0002E4A1A442046E260FFF779FE0020C9E608
:107EC000022384F860301EE70423FAE7D4E9042093
:107ED000D25C94F8641008FB0252C90052680AFA96
:107EE00002F20A41C25433464EE7BAF1020F3FD1C3
:107EF00098F80020182000FB02521E445268120914
:107F000084F86420D2B21201174129FA02F23A43EE
:107F1000A761E2619E421DD100231826012794F833
:107F20006220581C02EB4202DBB2B3EB420FBFF6F9
:107F300035AF18F8032094F864C006FB02524FEAEC
:107F40000C1C526807FA02F242FA0CF221F81320D4
:107F50000346E4E723F8027BDCE700BF5C03010093
:107F600000EE020018800041148000411C80004196
:107F70000022A76149EA070784F86420E761064404
:107F80009E4217D100231826012794F86220581C1E
:107F900002EB4202DBB2B3EB420FBFF6FFAE18F8C2
:107FA000032006FB0252526807FA02F241F823202E
:107FB0000346EAE7A26943F8042BE1E7A023FCE6C5
:107FC00023690121985D01F005FF23690021985D77
:107FD00001F044FF3E4636E7A16CDFF87CE04FEA53
:107FE000031901EB031308F10108187B07FB00F2EA
:107FF00005EB020CAA56D201964441F809E0144957
:108000001144DCF8042059600AFA02F29A60012156
:1080100001F0E0FEA36C94F86D104B443140187BE6
:1080200018BF012101F01AFFA36C4B4476001B7BA3
:108030007B43F6B2EA56074BD2011344226A9A42B6
:1080400018BF84F869B020E7032003E6012001E6A9
:10805000148000411C8000411880004110B5044686
:1080600078B1FFF767FD606A08B104F03FFEA06CCD
:1080700008B104F03BFE206918B104F037FE00237C
:10808000236110BDF8B5836B026C1A60D0E90B2335
:108090001360826A04461360FFF7CFFCD4E90B211A
:1080A00094F86B30116003F0FF06CBB994F8693097
:1080B000002B00F0C78094F86370304601233546EA
:1080C0003146C2B2BA42C0F08480226A694011606F
:1080D000082001F05DFD94F86C30DBB284F86D305F
:1080E00094F86B3094F865200133DBB29A4284F83F
:1080F0006B301DD8002284F86B2094F86C3094F813
:1081000066100133DBB2994284F86C3010D884F8E1
:108110006C2094F86E3043B194F86A30C3F10103D7
:10812000DBB284F86A3084F86E20A36D0133A36556
:10813000216D2046B140FFF761FC012001F028FDD0
:10814000D4E90F32B4F85E101A6094F86C2094F8F9
:10815000650094F86B3094F86050073100FB0232F0
:10816000C910CB006A435A4394F8683023B194F89D
:108170006A30E06C00FB0322636AE068012D13445F
:10818000C9B2A26940F0A28094F86450D2B22844E7
:108190000139C9B2FF2903F1080356D194F86430BC
:1081A000A268217FD15494F86530012B10D994F83E
:1081B0006B306BB92046FFF734FC236DC3EBC30370
:1081C00004331844C008636D83422CBF23652065C7
:1081D000F8BD94F86C201A421FBFA26C02EB00128B
:1081E0009268154394F86D201A421CBFA26C02EBF2
:1081F00000124FEA430318BF9268DBB218BF114365
:1082000001305EE794F86C2094F86D104A401542F6
:108210000FD0A16C94F86CC0180101EB03131CEA99
:10822000050F9A6814BF0B585B6808201A6001F0AC
:10823000AFFC6D00EDB2013794F86320FBB29A42B7
:10824000E0D848E737460125F6E713F8085C0570E3
:1082500000BF027000BF00BF00BF13F8075C0570CD
:1082600000BF027000BF00BF00BF13F8065C0570BE
:1082700000BF027000BF00BF00BF13F8055C0570AF
:1082800000BF027000BF00BF00BF13F8045C0570A0
:1082900000BF027000BF00BF00BF13F8035C057091
:1082A00000BF027000BF00BF00BF13F8025C057082
:1082B00000BF027000BF00BF00BF13F8015C057073
:1082C00000BF027000BF00BF00BF61E7022D40F099
:1082D000938094F8645092B200EB45000139C9B222
:1082E000FF2903F1100306D194F86420A368A18B41
:1082F00023F8121057E733F8105C058000BF0280A6
:1083000000BF00BF00BF33F80E5C058000BF0280D5
:1083100000BF00BF00BF33F80C5C058000BF0280C7
:1083200000BF00BF00BF33F80A5C058000BF0280B9
:1083300000BF00BF00BF33F8085C058000BF0280AB
:1083400000BF00BF00BF33F8065C058000BF02809D
:1083500000BF00BF00BF33F8045C058000BF02808F
:1083600000BF00BF00BF33F8025C058000BF028081
:1083700000BF00BF00BFB1E753F8205C056000BF3D
:10838000026000BF00BF00BF53F81C5C056000BF67
:10839000026000BF00BF00BF53F8185C056000BF5B
:1083A000026000BF00BF00BF53F8145C056000BF4F
:1083B000026000BF00BF00BF53F8105C056000BF43
:1083C000026000BF00BF00BF53F80C5C056000BF37
:1083D000026000BF00BF00BF53F8085C056000BF2B
:1083E000026000BF00BF00BF53F8045C056000BF1F
:1083F000026000BF00BF00BF0139C9B2FF2903F10D
:108400002003B9D1A368E2691A60CCE6034B0122CC
:108410009A72034B1868FFF735BE00BF0014004284
:10842000D00A002090F8683033B1012380F86E3014
:1084300090F86E30002BFBD170472DE9F04F90F88B
:1084400068304669446A95B0129133B190F86A3049
:10845000C16CC3F1010301FB0344836906939DF8DA
:1084600018300C93B0F85E30D91DC910C3EBC103AE
:10847000CD0054FA83F9D9B290F865301195062BE6
:108480000E9124D0C3F10503DBB24FF40061994093
:108490000791402199400891012101FA03F30993C2
:1084A00000230493531E1BB213939DF8101090F8F1
:1084B000663005918B4240F2BC800B4653435B0013
:1084C000DDE908A7079D0F934FF0000B2FE0202355
:1084D0001021CDE908314FF400430793E0E790F90C
:1084E00067300C990A91002BB8BF5B42013B5BB22D
:1084F00009EB020CACEB02010191591C23D10D9B3D
:108500004FEA4A0A23B990F86530052B00F28D80B6
:108510006D007F000E9B069C59420BF1010B19F870
:10852000013023EA040309F80130119B99445FFAF2
:108530008BF30D930D9990F865308B42CFD8049B47
:1085400001330493B1E790F866E0129902FB03F857
:108550000EFB08F801EB88080EFB02F4D9B2DB072A
:1085600010914FEA440419D590F96730002B15DAC1
:10857000059B0EF1FF31C91A514308EB410303EB90
:1085800004080293139C4FF0FF330B93019B634548
:108590000DD1109B013B5BB29444ABE70F9B984419
:1085A00008EB0403029301230B930024EEE7029BE4
:1085B00038F814E033F8143003931EEA050318BFAB
:1085C00033781EEA0A0F1CBF71780B431EEA070FAF
:1085D00018BF96F802E0039918BF43EA0E03294238
:1085E00018BF96F803E0039918BF43EA0E0311EA97
:1085F0000A0F18BF96F804E0039918BF43EA0E0368
:10860000394218BF96F805E00A9918BF43EA0E03ED
:1086100081EA030E019901F801EB01910C990B43DA
:108620000A930B9B1C4424B2B0E701274FF400656A
:1086300070E715B0BDE8F08F2DE9F04F90F8683085
:10864000446995B093461191426A5BB190F86A30E3
:1086500090F86050C16CB1FBF5F1C3F101034B43DD
:1086600002EB4302B0F85E30D91DC910C3EBC10361
:108670004FEAC10890F865100629DBB233D0C1F18A
:108680000501C9B24FF400658D40089540258D4025
:108690000995012505FA01F10A9190F86450290124
:1086A0008569CD400021ADB20F46894690F866C07D
:1086B000CEB2B44537D802EB430A4FEA48030F93D2
:1086C000002306930BF1FF331BB20C344FEA4B0827
:1086D000139390F862209DF818309A4200F2E880D7
:1086E00015B0BDE8F08F20211025CDE909154FF414
:1086F00000410891D1E722F817907E1CA6EB070EE7
:108700001FFA8EFEC6450AD30CF1010C374690F8CD
:1087100065E05FFA8CF6B645EDD80131C6E722F880
:1087200016500136EAE74FF0000CF0E790F96720A9
:10873000002A0AEB0803B8BF5242CDE9013A013AD8
:10874000002352B20B93531C90F866C02CD1009BAF
:108750000D9A5B00009390F8653012B9052B00F27A
:10876000A38076007F000F9B9A44049B01330493FF
:108770009DF810300D930D9A90F865309342D5D83E
:10878000059B013305939DF8142090F866300792FD
:10879000934240F2918008FB02F30E93DDE9093722
:1087A000089E00930023E2E790F967E012998EEAB1
:1087B000EE73A3EBEE73DBB203FB01230BFB03F3BE
:1087C00011990CFB03F301EB83030CFB0BF5D1B206
:1087D000D20710914FEA45051FD5BEF1000F1CDAF4
:1087E000079A0CF1FF31891A0BFB01F103EB4101F0
:1087F0004B194FF0FF32139D03930C92DDF808C024
:10880000019B9C4511D1029B43440293109B5A1E2D
:10881000019B434452B2019395E70E9A13440122FF
:10882000591903930C920025E8E7039B31F8159042
:1088300033F815E0009B1EEA060218BF34F80C2C32
:108840001EEA030F1CBF34F80A3C1A431EEA070F46
:1088500018BF34F808EC009B18BF42EA0E0219EA70
:10886000060F1CBF34F806EC42EA0E0219EA030FA9
:1088700018BF34F804EC0B9B18BF42EA0E0219EA49
:10888000070F18BF34F802EC3CF8029B18BF42EA0D
:108890000E0283EA020E0C9B0B924EEA090E1D4457
:1088A0002CF802EC2DB2ABE701274FF400665AE733
:1088B00000220592129366E7069B013306930C345F
:1088C00007E72DE9F04F90F86830446995B092467B
:1088D0001191426A5BB190F86A3090F86050C16CB7
:1088E000B1FBF5F1C3F101034B4302EB8302B0F896
:1088F0005E30D91DC910C3EBC1034FEAC10E90F819
:10890000651006295FFA83F92ED0C1F10501C9B2BD
:108910004FF400658D40089540258D40099501254F
:1089200005FA01F10A9100210E46884690F866701A
:10893000CDB2AF4237D84FEA8E030F934FEA8A0386
:108940000493002306930AF1FF331BB202EB890B59
:108950001834139390F862209DF818309A4200F270
:10896000DE8015B0BDE8F08F20211025CDE9091576
:108970004FF400410891D6E742F82680751CA5EB1C
:10898000060C1FFA8CFCF44508D301372E4690F8EC
:1089900065C0FDB2AC45EFD80131C7E7836942F845
:1089A00025300135EBE70027F1E790F96710049BCC
:1089B00000295B44B8BF4942CDE9003B013900239F
:1089C00049B20B934B1C90F866702CD10D9A90F81D
:1089D00065304FEA4E0E12B9052B00F29B807600EF
:1089E0004FEA49090F9B9B44039B013303939DF876
:1089F0000C300D930D9A90F865309342D5D8059BB5
:108A0000013305939DF8142090F866300792934245
:108A100040F289800AFB02F35B000E93DDE909E96D
:108A2000089E0023E2E790F967C0129A8CEAEC7383
:108A3000A3EBEC73DBB203FB02130AFB03F3119A03
:108A40007B4302EB8303CAB2109207FB0AF5CA0705
:108A50004FEA45051FD5BCF1000F1CDA07997A1EB5
:108A6000521A0AFB02F203EB420253194FF0FF3194
:108A7000139D02930C91DDF804C0009B9C4512D11C
:108A8000019B049A13440193109B591E009B1344AD
:108A900049B2009396E70E9A012113445A190293A2
:108AA0000C910025E7E7029B32F8158033F815702A
:108AB00017EA060118BF54F8181C17EA0E0F1CBF5E
:108AC00054F8143C194317EA090F18BF54F8107CE6
:108AD0000B9B18BF394318EA060F1CBF54F80C7CD7
:108AE000394318EA0E0F1CBF54F8087C394318EAC2
:108AF000090F1CBF54F8047C394383EA01085CF871
:108B0000047B0C9B0B9147EA08071D444CF8047C3E
:108B10002DB2B2E74FF001094FF4006662E7002280
:108B2000059212936EE7069B01330693183411E702
:108B300090F86030012B01D1FFF77FBC022B01D1EF
:108B4000FFF77ABDFFF7BDBE2DE9F0438DB01746A4
:108B50009DF854909DF96C804A46052AA8BF0522CD
:108B60000224052B04FA02F41A46A8BF052214FBBE
:108B700002F405461E46A4B2B8F1000F2FD088EAD1
:108B8000E872A2EBE872D2B214FB02F292B228466B
:108B90000B9100F0EFFC2846124B40F8283B1C9B41
:108BA0000B99CDE907839DF8683006939DF86430F2
:108BB00005939DF8603004939DF85C300393169BF9
:108BC000062FCDE90193149B00933A46334628BF04
:108BD0000622FEF73FFF28460DB0BDE8F0830122D4
:108BE000D2E700BF38FD000010B5074B044640F83F
:108BF000283BFFF733FA054B002220461A6000F0AD
:108C0000D5FC204610BD00BF38FD0000D00A002072
:108C1000024B28301860FFF711B800BFD00A0020BF
:108C200007B5034628301A89596A0190FFF780FF7B
:108C3000019803B05DF804EBFFF7F4BB2DE9F04FAA
:108C400085B01F46BDF93880BDF83C30A8EB02095D
:108C5000A7EB010AB9F1000FB8BFC9F10009BAF1D9
:108C6000000FB8BFCAF1000AD14583460C4615462D
:108C700004DD3A462C4647460D469046BC4205DD8B
:108C80002A464546904622463C4617463E1BB2B20F
:108C90000092A8EB0502002AB8BF52420192C6F327
:108CA000C03202FA86F64545B4BF01224FF0FF32CA
:108CB00076100292BC421CDCDBF800200393D14505
:108CC000D2F81880C7BF294622462A462146584670
:108CD000C047019A039BB61AB1B236B2002E05DA2C
:108CE000029A1544009A56182DB236B2013424B2B5
:108CF000E0E705B0BDE8F08F704710B40468246960
:108D0000A4465DF8044B604730B40468BDF80850D1
:108D10000295A46BA44630BC604730B40468BDF82B
:108D200008500295E46BA44630BC604770B4BDF9AE
:108D30000C50BDF810600468CDE90356246CA446BD
:108D400070BC60472DE9F3411C460368BDF82080E4
:108D50005B6905461646013C34440F4624B29847E9
:108D60002B68CDF8048000949C6A28463B46324626
:108D70003946A0472B68DB6A284602B0BDE8F041BF
:108D800018472DE9F3411D460368BDF820805B6953
:108D9000044617460E469847CDE9007822686B1EB8
:108DA0003344956A20461BB23A463146A8472368A9
:108DB000DB6A204602B0BDE8F04118472DE9F347D1
:108DC0001E460368BDF928905B69BDF82C800C46EF
:108DD0000546174698472644B4422B680BDACDF86F
:108DE0000080D3F820A021464B463A46284601345D
:108DF000D04724B2F0E7DB6A284602B0BDE8F0476E
:108E0000184713B502680191B0F90E100091146C67
:108E1000B0F90C3000221146A04702B010BD2DE978
:108E2000F3471D460368BDF82C805B69BDF92890A7
:108E300004460F46164698472368CDF80080D3F8BD
:108E400024A032462B4639462046D0472368CDF829
:108E5000008009F1FF323244D3F824A039462B4672
:108E6000204612B2D0472368CDF80080D3F820A066
:108E700032464B4639462046D0476B1ED9192368E7
:108E8000CDF800801D6A20464B46324609B2A847FD
:108E90002368DB6A204602B0BDE8F04718477047F8
:108EA00070B5466AE6B100291ADB002A18DBB0F972
:108EB0000C408C4214DDB0F90E40944210DD847EEB
:108EC000B0F90850022C0CD0032C12D0012C03D185
:108ED000D24350190A4601B202FB051126F811309F
:108EE00070BD4089CC43D2432C44024421B212B21B
:108EF000F2E74089CC432044114602B2ECE730B49B
:108F00000446406A0B46A0B1CDB262892189B5EB17
:108F1000132F12FB01F24FEA42024FEA132102D152
:108F200030BC03F0F9BE0244824202D020F8023B7A
:108F3000FAE730BC70472DE9F74399421646BDF970
:108F40002870BDF82C90026880460D461C4613D14F
:108F5000BE42C8BF3346CDF82890C4BF3E461F4628
:108F60007B1C946B9B1B1BB2324629464046A44691
:108F700003B0BDE8F0436047BE420AD19942C2BF88
:108F80000B4625461C46631CCDF82890D46B5B1B12
:108F9000E9E753699847CDE90079D8F800304046B1
:108FA0009F6A324623462946B847D8F80030DB6A24
:108FB000404603B0BDE8F043184701F00303B0F9A1
:108FC0000A208376C907B0F9083059BF8381C2816E
:108FD0008281C3817047000030B54281C281074A57
:108FE000074D0181002481814FF0FF31C0E9051256
:108FF0004460056004610477046230BD0101000132
:10900000E80201002DE9F04F8BB01C46BDF8583046
:109010000493A3B2C3F10105C3EBC3335B001BB2DE
:109020000793BDF9543001339BB2059393B2069375
:109030008846059B9DF8501003930023029301F08E
:1090400001030893DDF818A001F0020383462DB256
:109050000993029BA3426FDA002D6BDB079B02335F
:10906000661E1AB215FA83F536B207922DB2029F28
:1090700001371FFA87F93BB205EB490501359E42DE
:1090800002932DB229DB089B93B104980090DBF882
:1090900000000699059B006AB2B203EB42038A1AEC
:1090A00009EB080107461BB212B209B25846B8478D
:1090B000099B93B106990498059B0090B2B2DBF826
:1090C000000003EB42038A1AA8EB09011BB2D0F897
:1090D000209012B209B25846C847B44220D0089B2B
:1090E00073B1DBF80030049A009208EB0401D3F866
:1090F0002090BDF90C300FFA8AF209B25846C847E1
:10910000099B6BB1DBF80030049A0092A8EB0401D4
:109110000FFA8AF21C6ABDF90C3009B25846A04712
:109120000AF1FF331FFA83FA039B02339BB20393C6
:1091300034468EE726469AE70BB0BDE8F08F2DE95E
:10914000F0411E4686B00368059104465B69BDF890
:10915000307015469847B2B220680097530001332B
:10916000AA1AD0F82080059920461BB212B2C04737
:1091700003230022CDE900322046334605990297A9
:109180002A46FFF73FFF2368DB6A204606B0BDE8AA
:10919000F04118472DE9F04F2DED028B91B01646A6
:1091A000026ABDF874809DF878509DF87C40039168
:1091B0001F46BDF8703004938346002A40F0C580F6
:1091C000B0F90C308B4240F34C81B0F90E30B34211
:1091D00040F34781062313FB0513002B40F3418125
:1091E00006EBC403002B40F33C81037F1BB9AF2F78
:1091F00084BF0137FFB2DBF8003058465B699847FF
:109200000522099200220592984A07EB8703D3189A
:109210000C93B3B20693059A0C9B9B5C0793ABB27D
:109220000B93BDF80C300893039B02FB05F919FA68
:1092300083F90FFA89F308EE103A08230A93039B87
:1092400002EB030A4FF000090FFA8AFA079ADBF8DB
:109250000030D20752D5012D1FFA89F23ED1012CE0
:109260003CD19B6906991F46049B0A4412B25146A1
:109270005846B84709F101034FFA83F9079B5B0889
:1092800007930A9B013B13F0FF030A93DED1059F6E
:1092900001377BB20593099B013B13F0FF03099350
:1092A000B9D1049B43450FD0012DDBF800303BD1F1
:1092B000012C39D10899CDF8008005311C6A32465D
:1092C000082309B25846A047DBF80030DB6A58464D
:1092D00011B0BDEC028BBDE8F04F1847069914FBA6
:1092E00002F20A44049901910094DB6918EE101A05
:1092F0001F4612B22B465846B847BBE7049A424570
:10930000B8D0012D1FFA89F207D1012C05D19B6934
:1093100006991F460A444346A8E70699CDF80480FB
:1093200014FB02F20A44DFE70B9ACDF8048002EB4B
:109330008201089AE4000A4411460094DC6932462E
:109340002B4609B25846A047BEE7137A5168126807
:109350000D92FF1AFFB201EBC70331F837200692D6
:109360009A780992DA780B92012D93F9052093F9F6
:1093700006A00A9201D8012C57D9BDF928300893CC
:109380000FFA8AF30793DBF8003058465B69984779
:10939000B3B24FF000080E931AFA86F3C14647465F
:1093A0000F930B9B9F428FD2079B0E9A3B4403FB6C
:1093B0000423002205920F9A1BB202EB070A08EE63
:1093C000103A0FFA8AFA4346099A0599914241D216
:1093D0005A1CD2B25B070C9207D1069B06990D9AD4
:1093E00001339BB212F80190069319F0800F12D04E
:1093F000012DDBF80030BDF80C101AD1012C18D16A
:109400000A9A9B691144059A11441E465246049BD0
:1094100009B25846B047059E0136F3B24FEA4909F2
:1094200005935FFA89F90C9BCEE70023CDE907335A
:10943000A9E70598089A024402FB0511049ACDE9B0
:109440000042DB6918EE102A1E4609B22B46584628
:10945000B047E0E7099B013798445FFA88F8FFB20C
:109460009FE711B0BDEC028BBDE8F08F88FD0000D6
:10947000F0B5026A85B004460B46002A34D10A29A9
:1094800008D1438A0282427E03EBC2036382012039
:1094900005B0F0BD0D29FAD0E17E007E657E71B188
:1094A000B4F91060062111FB0061B4F90C60B142FF
:1094B000C1BFB4F91210228201EBC5026282E28AB6
:1094C0000192A28A0092CDE90205B4F91220B4F902
:1094D00010102046FFF75EFE237E228A03EB430333
:1094E00002EB43032382D2E70A2907D10023038238
:1094F000137B417E428A01FB0323C7E70D29C6D0B7
:10950000157AA942C3D3917A9942C0D351685D1BA1
:10951000EDB201EBC505AF782FB3E97819B3E17E61
:10952000007E667E91B195F905103944B4F910704A
:1095300000FB0171B4F90C70B94207DD00272782E6
:10954000B4F91210127B02FB06126282E28A0192C7
:10955000A28A0092CDE90206B4F91220B4F91010E3
:109560002046FFF717FE2979237E228A01FB032379
:10957000B8E7000037B513460D4612B209B20446EB
:10958000FFF72AFD084A226003FB05F14A00104656
:10959000019203F0A3FB606218B1019A002103F06D
:1095A000BBFB204603B030BD9002010010B504465D
:1095B000406A08B103F09AFB204610BD30B5B0F9FF
:1095C0000840BDF80C5004FB0212446A002104EB71
:1095D00042020CB2A34206DD1580B0F90840013109
:1095E00002EB4402F5E730BD30B5B0F90850BDF8E4
:1095F0000C4005FB02121344934204D9416A21F83E
:1096000012400132F8E730BDF0B4002BBDF8105025
:1096100014460BDA0134A6B29FB216FA83F31CB2D9
:10962000002CA7BF7B421BB233B2002400293BDBD6
:10963000B0F90C208A4237DDB0F90E20944233DABB
:10964000E618002E30DD002CBCBF33B20024E61833
:109650009642C8BF131B827EC8BF1BB222B90495B5
:109660002246F0BCFFF7AABF012A08D1028904955F
:10967000141BE41A0A4621B2F0BCFFF7B5BF022A58
:1096800009D102890495013A511A4289121BD21A52
:1096900012B209B2E5E7032A06D142890495013ADC
:1096A000521A12B22146E7E7F0BC7047F0B4002B23
:1096B000BDF8106014460BDA01318DB215FA83F152
:1096C00009B200299FB2A7BF7B421BB22BB2002177
:1096D000002C3BDBB0F90E20A24237DDB0F90C20A4
:1096E000914233DACD18002D30DD0029BCBF2BB2FA
:1096F0000021CD189542A8BF531A827EA8BF1BB285
:1097000022B904962246F0BCFFF76EBF012A08D1A9
:1097100002890496013A141B0A4621B2F0BCFFF7F5
:109720004DBF022A09D1428905890496013A691A76
:10973000121BC91A12B209B2E5E7032A06D14289FF
:109740000496521AD21A12B22146E7E7F0BC7047CB
:10975000F8B505460E4617460024BC4207D02B68D4
:10976000315D1B682846984708B10134F5E720466B
:10977000F8BD7047D0F81C21D0F818319A421DBFAF
:10978000D0F81C31C018007E4FF0FF307047D0F881
:109790001831D0F81C01181A48BF00F580707047C6
:1097A0002DE9F04100251E464FF47A730446C0E9C6
:1097B0000153104B40F8183B8846174629464FF492
:1097C000807203F0A9FAC4F818514FF48072C4F8FB
:1097D0001C51294604F5907003F09EFAC4F82052FB
:1097E000C4F81080C4F8245227756675A575204604
:1097F000BDE8F08140030100D0F80031D0F8042129
:109800000133DBB29A421EBFD0F800218154C0F868
:109810000031704708B5837D6BB1D0F82032D0F8A5
:1098200024220133DBB2934205D000F59070FFF79C
:10983000E3FF012008BD0020FCE7D0F80421D0F8A8
:1098400000319A421FBFD0F80431C25CD0F8043115
:1098500001331DBFDBB2C0F8043110464FF0FF30BA
:10986000704708B51830FFF7E8FF08BD70B504462B
:10987000006900F0A4FD98B1206900F0ADFD80B151
:10988000206900F075FD2069032100F078FDD4F80F
:109890003052002D33D10023C4F81831C4F81C31E4
:1098A00070BD206900F0A2FD40B1206900F099FD73
:1098B00020B1206900F09FFD0028E1D0206900F070
:1098C00095FD10BB206900F082FD0028E8D02069DA
:1098D00000F091FD002834D0D4F82032D4F82422AE
:1098E0009B1A48BF03F580734BB304F59070FFF7E4
:1098F000A4FFC1B2206900F054FDA075D0E7236831
:1099000020461B699847A847C5E7206900F030FD4D
:109910002069032100F033FD206900F06CFD002870
:10992000BED00023C4F82032C4F824320123A3752A
:10993000D4F82C32002BB3D0BDE870401847FF217B
:10994000D8E7D4F81831D4F81C2120690133DBB2F0
:10995000934207D100F005FD20690321BDE8704066
:1099600000F00DBD00F04CFD014604F11800FFF7BA
:1099700043FF206900F0FCFCEEE700000148FFF720
:1099800075BF00BFD40A0020FFF7F8BFFFF7F6BF8E
:10999000FFF7F4BF0249034806230522FFF700BF83
:1099A0003C130020D40A0020014801F063BF00BF2F
:1099B000080D0020FFF7F8BFFFF7F6BFFFF7F4BF71
:1099C000014801F057BF00BF04100020FFF7F8BFA7
:1099D000FFF7F6BFFFF7F4BFF7B5174F1749184861
:1099E000184E00F0EDFB1849384600F0E9FB174926
:1099F000174800F0E5FB1749174800F0E1FB4FF06E
:109A00008641304600F0DCFB012400251349144850
:109A100000F0D6FB23462A463946CDE900451148D9
:109A200001F0C6FECDE900451C231B2231460E483D
:109A300001F0BEFE03B0F0BD0C130020003000406A
:109A400000130020301300200034004000200141AA
:109A5000181300200040014124130020000400439B
:109A60003C130020080D002004100020FEE7000039
:109A7000024B1B6803B11847704700BF4813002012
:109A8000194B1A481A4A834210B51DD09A421DD06C
:109A9000144619468142224611D3834219D1154AF0
:109AA000D2F8883043F47003C2F88830BFF34F8F88
:109AB000BFF36F8F00F09AF802F0D6F8FEE7126855
:109AC00041F8042B0434E5E71946E6E719461A463F
:109AD000E3E78A42E3D0084B084A002101E043F85B
